:020000040800F2
:10000000A013002045010008551F0008391D0008F5
:10001000511F0008FF0C00085735000800000000C1
:100020000000000000000000000000009126000811
:10003000EF18000800000000DD2200087D2A0008FB
:100040005F0100085F0100085F0100085F01000810
:100050005F0100085F010008091900085119000834
:10006000991900085F0100085F0100085F0100089E
:100070005F0100085F0100085F0100085F010008E0
:100080005F0100085F0100085F0100085F010008D0
:100090005F0100085F0100085F010008B119000856
:1000A0005F0100085F0100085F0100085F010008B0
:1000B000E52A00082D2B00085F0100085F010008F9
:1000C0005F0100085F0100085F0100085F01000890
:1000D0005F010008BD3200085F0100085F010008F1
:1000E0005F0100085F0100085F0100085F01000870
:1000F0005F0100085F0100085F0100085F01000860
:100100005F0100085F010008492B00085F0100083B
:100110005F0100085F0100085F0100085F0100083F
:100120005F0100085F010008711600085F01000808
:10013000DFF80CD000F01CFC00480047793E0008B6
:10014000A01300200648804706480047FEE7FEE768
:10015000FEE7FEE7FEE7FEE7FEE7FEE7FEE7FEE777
:10016000852A000831010008034611F8012B00F828
:10017000012B002AF9D118467047F0B480EA010239
:10018000D40F4200B2EB410F02D20246084611469C
:100190004A0042D0C30DDDB2C1F3C752AD1A202DC3
:1001A00035DAC1F3160141F4000204B15242C5F13F
:1001B000200602FA06F12A411044B3EBD05F23D0A7
:1001C000C4B1012DA0EBC35009DCF0BC4FF00042DC
:1001D00002EAC352DBB200F5000000F00EBB4000A3
:1001E00000F1807000EBC350A0F1807040EAD17044
:1001F000490009E0490841EAC071A0EBC35000F58D
:100200000000400800EBC350F0BC00F0EDBA6142C2
:10021000012202EB4101001BF6E7F0BC704781F0C0
:100220000041AAE780F00040A7E780EA010210B58C
:1002300002F00043400022D04A001FD0010E01EB23
:100240001261C0F35600C2F3560240F4000042F4BB
:100250000002A0FB022000047F39140400D0401CDF
:1002600050EA124001D44000491EC2B20C0604EB11
:10027000D010401C4008802A02D003E0002010BDAE
:1002800020F00100002900DA0020184310BD30B42E
:1002900080EA010202F0004530F0004221F0004007
:1002A00013D090B1C30DD40DC2F31601C0F31600E4
:1002B000E41A41F4000140F400027D34914201D37C
:1002C000641C00E04900002C02DA30BC00207047BA
:1002D0004FF400000023914201D3891A03434008E0
:1002E0004FEA4101F7D151B1914202D14FF00041A3
:1002F00005E002D24FF0010101E06FF0010103EBD4
:10030000C450284430BC00F06FBA2DE9FE4F80463F
:1003100081EA0300C00F0C46009021F0004123F059
:100320000045B8EB0200A94105D24046214690465F
:100330001C460B46024623F00040104347D0270DD1
:10034000C7F30A00C3F30A510290401A01904028F3
:100350006BDAC3F3130040F4801B0098924620B17F
:100360000023D2EB030A63EB0B0B01985946C0F153
:100370004002504600F017FA06460D4650465946D0
:10038000019A00F01FFA10EB08006141002487EA8F
:10039000115284EAE7731A4340D0009A62B3019A7B
:1003A000012A4FEA075215DC001B61EB02014FF0F6
:1003B000004202EA0752CDE90042001C41F58011DB
:1003C00032462B4600F056FA03B0BDE8F08F4046A7
:1003D0002146F9E7001B61EB0201001C41F5801387
:1003E00000185B412018A2F5001747EB030140EA13
:1003F000D570B6196D4111E06D084FEA360645EA31
:10040000C0754FEA0752001B61EB0201001C41F569
:10041000801149084FEA30000019514132462B46FD
:1004200003B0BDE8F04F00F016BA0098012240007A
:100430000023D0EB020263EBE073009821464FEA01
:10044000E074B8EB000061EB0401E9E783F00043DE
:100450005BE781F0004158E72DE9FE4F81EA030494
:1004600004F0004421F0004100944FF0000B23F011
:10047000004350EA01045ED052EA03045BD0C3F3A8
:100480000A54C1F30A552C44A4F2F3340194A0FB9E
:100490000254C1F3130141F48011C3F3130343F475
:1004A000801301FB024400FB034E840A970A44EACE
:1004B000815447EA8357A4FB076802958D0A05FB20
:1004C00007854FEA932C04FB0C542705029D4FEA45
:1004D000065847EA1637B5EB08056EEB070C870E92
:1004E000920E47EA811742EA8312A7FB0201B6EB9C
:1004F0000B0164EB00042B0D43EA0C335E1844EB54
:100500001C50DA465146E7FB0201C5F313044FEADB
:100510000B3343EA14534FEA0432019C43EA0603C7
:10052000A4F10C040294009CCDE900B400F0A2F9FF
:1005300003B0BDE8F08F00200146F9E72DE9F04D4A
:1005400081EA030404F0004B21F0004514464FF00B
:10055000000A23F0004150EA050220D054EA0102CB
:100560001DD0C5F30A570246C5F31303C1F31300A8
:10057000C1F30A5640F4801543F48013A7EB060834
:10058000101BD64608F2FD3873EB050002D308F1C4
:10059000010801E092185B41B8F1000F03DA002076
:1005A0000146BDE8F08D00204FF4801106468446D8
:1005B0000EE0171B73EB050705D3121B63EB050356
:1005C00006434CEA010C49084FEA300092185B419F
:1005D00050EA0107EDD152EA030012D082EA04008A
:1005E00083EA0501084305D0101BAB4106D2012266
:1005F000002306E000224FF0004302E06FF001020A
:1006000053101AEB06004CEB085110EB0A0041EBBB
:100610000B01BDE8F04D00F01EB9C10F80EAE0709B
:100620000844CA079623002100F0E7B89623002269
:10063000114600F0E2B800F0004220F00040C10D89
:10064000C0F3160040F400007F2901DA0020704753
:10065000962903DCC1F19601C84001E09639884033
:10066000002AF4D04042704720F00040C10DC0F392
:10067000160040F400007F2901DA00207047962917
:1006800003DCC1F19601C840704796398840704735
:1006900000F0004230F000400AD0C10D01F5607159
:1006A000C0F3160042EA0151C208400711437047E7
:1006B00000200146704701F0004330B421F00041B2
:1006C00050EA010206D00A0DA2F56072C1F31301CF
:1006D000002A02DC30BC00207047440F44EAC10409
:1006E000C100E01830BC00EBC25000F07DB8000043
:1006F000002801DBC0F10040002901DBC1F100410D
:1007000081427047002801DBC0F10040002901DB75
:10071000C1F100418842704730B50B4601460020C8
:100720002022012409E021FA02F59D4205D303FAB3
:1007300002F5491B04FA02F52844151EA2F1010234
:10074000F1DC30BD2DE9F05F0546002092469B4666
:1007500088460646814640241BE0284641464746D7
:10076000224600F017F953465A46C01A914110D359
:1007700011461846224600F016F82D1A67EB0108BC
:100780004F4622460120002100F00DF817EB00092A
:100790004E41201EA4F10104DFDC484631462A46C2
:1007A0004346BDE8F09F202A04DB203A00FA02F11C
:1007B000002070479140C2F1200320FA03F319434F
:1007C00090407047202A06DBCB17203A41FA02F00E
:1007D00043EAE07306E041FA02F3D040C2F120029E
:1007E00091400843194670470029A8BF7047401C34
:1007F000490008BF20F00100704710B4B0FA80FC37
:1008000000FA0CF050EA010404BF10BC704749B173
:10081000CCF1200421FA04F411FA0CF118BF0121E3
:1008200021430843A3EB0C01CB1D4FEA00614FEAC3
:10083000102042BF002010BC704700EBC350104492
:100840000029A4BF10BC7047401C490008BF20F01D
:10085000010010BC704710B5141E73F1000408DAD3
:10086000401C41F1000192185B411A4301D120F074
:10087000010010BD2DE9F04D92469B4611B1B1FA31
:1008800081F202E0B0FA80F220329046FFF78BFF4F
:1008900004460F4640EA0A0041EA0B0153465A4615
:1008A000084313D0114653EA010019D0C8F14002A1
:1008B000504600F06FF805460E46504659464246EF
:1008C000FFF771FF084305D0012004E020463946B8
:1008D000BDE8F08D0020054346EAE0762C4337431F
:1008E0000A986305E40AA0EB08000022FD0A44EA26
:1008F00047540A3002D500200146E9E701051019E6
:100900006941DDE9084500196941BDE8F04DA2E7FC
:10091000C1F30A52C1F3130140F2FF3341F48011D5
:100920009A4202DA00200146704740F233439A426D
:10093000A2F2334202DC524200F02CB8FFF733BF80
:1009400030B5041E71F1000404DB4FF00044404256
:1009500064EB0101141E73F1000405DB1C464FF02B
:100960000043524263EB0403994208BF904230BDFA
:10097000064C074D06E0E06840F0010394E80700EC
:1009800098471034AC42F6D3FFF7D6FB98490008DD
:10099000B8490008202A04DB203A21FA02F000219D
:1009A000704721FA02F3D040C2F12002914008437F
:1009B0001946704770B58D1810F8014B14F00302FA
:1009C00001D110F8012B231106D110F8013B03E0EF
:1009D00010F8016B01F8016B521EF9D1ABB110F8A0
:1009E000012B04F00C048A1A0C2C03D0A2EB841205
:1009F0009B1C08E010F8014BA2EB0422F8E712F868
:100A0000014B01F8014B5B1EF9D5A942D4D300205C
:100A100070BD21B1826842F00102826003E0826809
:100A200022F001028260704721B1826842F4807234
:100A3000826003E0826822F480728260704701461F
:100A400000208A6802F004020AB1012000E00020C0
:100A50007047014600208A6802F008020AB10120AE
:100A600000E000207047000030B50246002000235F
:100A700050680F4C20400D790C6844EA052420434F
:100A8000506090680B4C2040D1E902542C434D79C2
:100A900044EA450420439060D06A20F470000C7C46
:100AA000641EE4B2234340EA0350D06230BD00002C
:100AB000FFFEF0FFFDF7F1FFF0B504460D46002004
:100AC0000021092D11DDE068A5F10A0606EB4607B5
:100AD000072606FA07F18843A5F10A0606EB460643
:100AE00003FA06F10843E0600CE0206905EB4507D6
:100AF000072606FA07F1884305EB450603FA06F1D7
:100B000008432061072A0FDA606B561E06EB860742
:100B10001F2606FA07F18843561E06EB860605FADD
:100B200006F10843606322E00D2A0FDA206BD61F1E
:100B300006EB86071F2606FA07F18843D61F06EB49
:100B4000860605FA06F10843206310E0E06AA2F188
:100B50000D0606EB86071F2606FA07F18843A2F169
:100B60000D0606EB860605FA06F10843E062F0BDC5
:100B7000816841F008018160704721B1826842F4C8
:100B8000A002826003E0826822F4A00282607047C3
:100B9000816841F0040181607047000030B107496D
:100BA000096841F40001054A116005E0034909683C
:100BB00021F40001014A116070470000082401403F
:100BC0002DE9F05F01F0AEF8002836D01C49088806
:100BD000FFF72CFD0446FFF747FD1FFA80FA19487E
:100BE000006850441749086017480088401C16499F
:100BF000088008460088B0F5AF7F09DB114800681F
:100C00000988B0FBF1F42046FFF710FD0F4908609A
:100C100000F0D2F80D480068FFF73AFD06464FF0A5
:100C200066320B4BFFF718FC04460022094BFFF716
:100C300085FC8046FFF73FFD83465846BDE8F09FA0
:100C40007C0A002014000020120000200008002070
:100C500066660A4000FEAF402DE9F04F85B00546BC
:100C6000884691460026A8F101001FFA80FAB34693
:100C700049462868FFF7D3FA0190FFF709FD21F0F4
:100C80000041CDE90201FFF716FD0490002432E097
:100C9000AAEB060000EBD07106EB61018CB255F8AF
:100CA00024004946FFF724FD03D1204605B0BDE8E6
:100CB000F08F55F824004946FFF7B1FA0190FFF78D
:100CC000E7FC21F00041CDE90201FFF7F4FC074603
:100CD00038460499FFF70CFD01D20497A34655F856
:100CE00024004946FFF70EFD02D2601C86B202E0E6
:100CF000601E1FFA80FA5645CADD5846D6E700BF87
:100D0000FEE710B50246012000E050430B1EA1F1A2
:100D10000104E1B2F9D110BD10B5044634B1012C83
:100D200019D0022C22D0032C34D12AE001228021B8
:100D3000194800F0EBFF00225021174800F0E6FFB1
:100D400016A21021302001F065FA01F09FF9012070
:100D5000154908701EE0012210210F4800F0D6FF4F
:100D60000022C0210C4800F0D1FF13E001224021F5
:100D7000094800F0CBFF00229021074800F0C6FF91
:100D800008E00022D021044800F0C0FF00200649FE
:100D9000087000BF00BF10BD001001406F70656E8D
:100DA00020202020202020002100002000200149B8
:100DB000087070470D080020002001490870704736
:100DC0000C08002000B587B04FF4004001F0BAFADB
:100DD0000121480201F0F2FA0121042001F0EEFAAB
:100DE0000220ADF8180000208DF81B0006A922484B
:100DF00000F0F4FE0020019001208DF808008DF82D
:100E000009004FF4602003900020049002208DF828
:100E1000140001A91948FFF727FE052301221146F6
:100E20001648FFF749FE0523022211211348FFF758
:100E300043FE01211148FFF7F7FD01210F48FFF79D
:100E4000E8FD0E48FFF794FE00BF0C48FFF701FED7
:100E50000028FAD10948FFF79BFE00BF0748FFF7BB
:100E6000EEFD0028FAD101210448FFF786FE01209B
:100E7000FFF794FE07B000BD0008014000240140C8
:100E800000B585B00121042001F098FA012148073E
:100E900001F074FA1020ADF8100003208DF8120054
:100EA00000208DF8130004A90C4800F097FE2C20B8
:100EB00000900020019002900390694600F0AEFB84
:100EC0000121002000F094FB0021084600F0C0FB47
:100ED0000121002000F078FB05B000BD00080140B2
:100EE00000B58BB00121084601F038FA114800F036
:100EF000F9FB114800901148019000200290022057
:100F0000039000200490802005904000069080000F
:100F1000079020200890C001099000200A9069469F
:100F2000044800F0A4FC0121024800F0CFFB0BB004
:100F300000BD0000080002404C2401407C0A002053
:100F400003B58DB00121022001F008FA1A4800F023
:100F5000C9FB1A4802900D9803900E980590102036
:100F600004900020069080200790400008908000A8
:100F7000099020200A9000020B9000200C9002A9FA
:100F80000D4800F074FC3A208DF8040000208DF824
:100F900005008DF8060001208DF8070001A800F07B
:100FA000E7FF01220221044800F058FC0121024819
:100FB00000F08CFB0FB000BD30040240087400400C
:100FC0000EB50121084601F0F9F90121022000F0D7
:100FD000E5FD0220019000208DF8080008208DF822
:100FE000090001208DF80A0001A800F04FFD07203C
:100FF0008DF8000002208DF801008DF8020001201C
:101000008DF80300684600F0B3FF0221084600F0A7
:10101000C5FD0420019000208DF8080008208DF8FF
:10102000090001208DF80A0001A800F02FFD08201A
:101030008DF8000002208DF801008DF802000120DB
:101040008DF80300684600F093FF0021084600F089
:10105000A5FD0120019000208DF8080008208DF8E2
:10106000090001208DF80A0001A800F00FFD0620FC
:101070008DF8000002208DF801008DF8020001209B
:101080008DF80300684600F073FF0821022000F08D
:1010900085FD4FF48070019000208DF8080010202D
:1010A0008DF8090001208DF80A0001A800F0EEFC7F
:1010B00017208DF8000002208DF8010001208DF826
:1010C00002008DF80300684600F052FF0EBD0000DC
:1010D00008B50121102001F071F90121042001F06F
:1010E0006DF90220ADF8000048208DF80300694634
:1010F000114800F073FD0420ADF8000048208DF881
:10110000030069460C4800F069FD0120ADF80000BD
:1011100048208DF803006946084800F05FFD4FF451
:101120008070ADF8000004208DF803006946024885
:1011300000F054FD08BD000000100140000801400F
:1011400008B50121102001F039F91020ADF8000098
:1011500003208DF8020010208DF8030069460D4829
:1011600000F03CFD012210210A4800F0CFFD2020B4
:10117000ADF8000003208DF8020010208DF8030068
:101180006946044800F02AFD00222021014800F0B1
:10119000BDFD08BD0010014010B54FF4A06000F087
:1011A0001FFF10BD08B50121082001F007F901213A
:1011B000102001F003F94FF40050ADF800001020AA
:1011C0008DF8030003208DF802006946294800F0DD
:1011D00005FD4FF40051274800F096FD4FF4004004
:1011E000ADF8000010208DF8030003208DF80200F8
:1011F0006946204800F0F2FC4FF400411D4800F021
:1012000083FD4FF48040ADF8000010208DF80300FE
:1012100003208DF802006946164800F0DFFC4FF409
:101220008041144800F070FD4FF48050ADF800008C
:1012300010208DF8030003208DF8020069460D4848
:1012400000F0CCFC4FF480510A4800F05DFD08200E
:10125000ADF8000010208DF8030003208DF8020087
:101260006946054800F0BAFC0821034800F04CFD2F
:1012700008BD0000000C01400010014010B5002125
:10128000AE2000F0E9FF0021D52000F0E5FF0021AD
:10129000502000F0E1FF0021A82000F0DDFF002138
:1012A0003F2000F0D9FF0021D32000F0D5FF00211E
:1012B000084600F0D1FF0021402000F0CDFF0021C2
:1012C0008D2000F0C9FF0021142000F0C5FF00218F
:1012D000202000F0C1FF0021022000F0BDFF00210E
:1012E000A12000F0B9FF0021C02000F0B5FF0021CF
:1012F000DA2000F0B1FF0021122000F0ADFF002144
:10130000812000F0A9FF0021EF2000F0A5FF0021BF
:10131000D92000F0A1FF0021F12000F09DFF002165
:10132000DB2000F099FF0021302000F095FF002124
:10133000A42000F091FF0021A62000F08DFF0021E5
:10134000AF2000F089FF10BD10B501F057F84FF441
:10135000803001F015F901F071F90446012C24D117
:10136000102000F001FC022000F00CFC002001F035
:10137000FBF8002001F036F9A00201F027F94FF444
:10138000E011200401F040F9012001F037F900BF1D
:10139000392001F0C3F80028FAD0022001F042F908
:1013A00000BF01F0D9F80828FBD110BD08B5012114
:1013B000102001F003F8D020ADF8000010208DF8C7
:1013C000030003208DF8020069460D4800F006FC7A
:1013D0000022D0210A4800F099FC4FF48070ADF84B
:1013E000000004208DF803006946054800F0F6FB74
:1013F00000224FF48071024800F088FC08BD000014
:10140000001001407FB505460C460121084600F05A
:10141000B5FFADF80850ADF804400020ADF80A0063
:10142000ADF8060001A94FF0804001F0D9FC01227F
:101430001146900701F0C1FC1C208DF8000000202F
:101440008DF8010003208DF8020001208DF80300C3
:10145000684600F08DFD0121880701F09CFB7FBDEF
:101460003EB505460C460121042000F087FF0C48DC
:1014700001F09EFBADF80450ADF800400020ADF83F
:101480000600ADF802006946054801F0A9FC2021DC
:10149000034801F09BFC0121014801F07CFB3EBDAB
:1014A000000800407FB505460C460121082000F0E9
:1014B00065FFADF80850ADF804400020ADF80A0013
:1014C000ADF8060001A90E4801F08AFC0122114680
:1014D0000B4801F072FC32208DF8000000208DF8DE
:1014E000010003208DF8020001208DF803006846FA
:1014F00000F03EFD0121024801F04DFB7FBD0000E0
:10150000000C004010B586B004460121880300F0AD
:1015100055FF0121042000F051FF4FF40070ADF899
:10152000140018208DF8170003208DF8160005A967
:10153000224800F053FB4FF48060ADF81400042003
:101540008DF8170005A91D4800F048FB01A801F01F
:10155000F6FF01940020ADF80800ADF80A00ADF8E0
:101560000C000C20ADF80E000020ADF8100001A911
:10157000134801F06FFF25208DF8000001208DF841
:1015800001008DF802008DF80300684600F0F0FCC1
:10159000012240F225510A4801F037FF012240F2B2
:1015A0002771074801F031FF0121054801F0EAFEEB
:1015B00000200449087006B010BD0000000801407A
:1015C000003801401808002039B1084A1268012388
:1015D00083401A43054B1A6006E0044A126801234F
:1015E00083409A43014B1A6070470000007400402A
:1015F00041B1094A12684FF4805383401A43064BA5
:101600001A6007E0044A12684FF4805383409A43FB
:10161000014B1A60704700000074004030B5002292
:1016200000230A4C226840F6FE748440A243D1E9AC
:1016300000452C438D682C43CD6844EA050303FA2A
:1016400000F42243014C226030BD000000740040D1
:1016500008B500220092054A009200F10802009BA2
:101660001A440092009A116008BD00000074004006
:1016700010B50B4800F0DCF880B13A2000F01F02F2
:1016800001219140074A430942F8231000BF064850
:1016900000F00EF8054803C8FFF752FC10BD00002B
:1016A0000002001080E200E0000100101C08002091
:1016B00000F0805111B10349086001E0024948601F
:1016C00070470000040402400000024021B102689B
:1016D00042F00102026004E002684FF6FE731A4015
:1016E0000260704701684FF6FE72114001600021F0
:1016F000016041608160C1604B49884208D14A491C
:101700000839496841F00F01474A083A51608AE0B8
:1017100045491431884208D143490839496841F0A4
:10172000F001414A083A51607DE03F492831884242
:1017300008D13D490839496841F470613A4A083A8C
:10174000516070E038493C31884208D13649083947
:10175000496841F47041344A083A516063E03249C3
:101760005031884208D130490839496841F4702124
:101770002D4A083A516056E02B496431884208D11D
:1017800029490839496841F47001274A083A5160EB
:1017900049E025497831884208D123490839496808
:1017A00041F07061204A083A51603CE01F4988428C
:1017B00006D1011F096841F00F01021F116032E0DC
:1017C0001A491431884208D11849091F096841F0A3
:1017D000F001164A121F116025E014492831884291
:1017E00008D11249091F096841F470610F4A121F9C
:1017F000116018E00D493C31884208D10B49091F9E
:10180000096841F47041094A121F11600BE0074951
:101810005031884207D10549091F096841F47021F8
:10182000024A121F1160704708000240080402407B
:1018300001460020002201F0805313B1054B1A68C5
:1018400001E0054B1A6802EA01030BB1012000E038
:101850000020704700040240000002401AB10368F3
:101860000B43036002E003688B430360704710B5CD
:101870000022026847F6F0739A430C6A8B68234390
:101880000C6923434C6923438C692343CC6923436C
:101890004C6A23438C6A23431A430260CB6843603B
:1018A0000B6883604B68C36010BD30B503460020F1
:1018B00016E0B3F900509C68645D0C541C88641CED
:1018C00024B21C80B3F90040B3F90450AC4201DBF0
:1018D00000241C80441C20B2DC88641E24B2DC80FE
:1018E000B3F90640002C01DD9042E2DB30BD7047C9
:1018F00001B504490098086000BF0248006800284C
:10190000FBD108BD940A002010B5012000F0AAF810
:1019100078B1032000F042FF06A001F02BFE09A2DF
:101920001021302000F076FC00F0B0FB012000F028
:1019300093F810BDD2D1B9D8B1D5CCE5CEC2B2E2C0
:10194000C1BF0A00636C6F73652020202020000057
:1019500010B5022000F086F878B1002000F01EFFDC
:1019600006A001F007FE09A21021302000F052FC71
:1019700000F08CFB022000F06FF810BDD2D1B4F261
:10198000BFAACCE5CEC2B2E2C1BF0A006F70656EDD
:10199000202020202000000010B5042000F062F874
:1019A00020B101F06FFA042000F056F810BD0000DD
:1019B00010B54FF4807000F055F8002828D04FF48F
:1019C0008071144800F095F9012808D112A001F0A7
:1019D000D1FD0120144908700020144908704FF40B
:1019E00080710C4800F085F970B911A001F0C2FDBA
:1019F00000200D49087000F0D1FE0C4802780A481A
:101A000001780EA001F0B6FD4FF4807000F024F8CC
:101A100010BD000000100140B5BCC1AACDD1C2E488
:101A2000A3A1A3A1A3A10A0020000020210000205F
:101A3000B5BCC1AAD5FDB3A30A0000006C65616402
:101A4000466C61673D2564202020206F70656E46DE
:101A50006C61673D25640000014908607047000023
:101A600014040140014600200022074B1B6803EAD2
:101A70000102054B14331B680B4013B10AB101205E
:101A800000E00020704700000004014000212349CD
:101A90008279002A3AD00A46126803689A430B46B4
:101AA0001A600A1D126803689A430B1D1A600279B6
:101AB00011440A6803681A430A60184A0832126817
:101AC00003689A43154B08331A601A1D126803689D
:101AD0009A43124B0C331A604279102A0ED11A1F06
:101AE000126803681A430D4B08331A601A1D1268F6
:101AF00003681A43094B0C331A600DE00749427919
:101B000011440A6803681A430A6005E00279114427
:101B10000A6803689A430A607047000000040140A5
:101B200070B50346002016E00C5CB3F902609D68B6
:101B3000AC555C88641C24B25C80B3F90240B3F9F4
:101B40000450AC4201DB00245C80441C20B2DC88E1
:101B5000641C24B2DC80B3F90640B3F90450AC42F3
:101B600001DA9042E0DB70BD0549096821F01001FF
:101B7000034A116011460968014311607047000073
:101B80000020024001460020034A106800F038009F
:101B900008431060704700000020024030B500226A
:101BA0008B071C0F0F2303FA04F20B4B8C1053F816
:101BB00024309343084C8D1044F8253023468C1074
:101BC00053F824308C07240F00FA04F42343024C0A
:101BD0008D1044F8253030BD080001402DE9F0415A
:101BE000024600250026002000230024002791F84B
:101BF00003C00CF00F0591F803C00CF0100CBCF101
:101C0000000F03D091F802C04CEA050591F800C01E
:101C1000BCF1000F31D0146800202BE04FF0010C14
:101C20000CFA00F3B1F800C00CEA03069E4220D182
:101C300083004FF00F0C0CFA03F7BC4305FA03FCCA
:101C40004CEA040491F803C0BCF1280F06D14FF010
:101C5000010C0CFA00FCC2F814C00AE091F803C0B1
:101C6000BCF1480F05D14FF0010C0CFA00FCC2F892
:101C700010C0401C0828D1D31460B1F800C0BCF1DA
:101C8000FF0F34DD546800202EE000F1080C4FF007
:101C9000010808FA0CF3B1F800C00CEA03069E42F2
:101CA00021D183004FF00F0C0CFA03F7BC4305FA67
:101CB00003FC4CEA040491F803C0BCF1280F05D1E1
:101CC00000F1080C08FA0CF8C2F8148091F803C06F
:101CD000BCF1480F07D100F1080C4FF0010808FAD9
:101CE0000CF8C2F81080401C0828CED35460BDE820
:101CF000F0810246002093680B400BB1012000E008
:101D00000020704741617047016170470AB101616D
:101D100000E0416170470000014800787047000012
:101D20000D08002001480078704700000C080020D2
:101D3000004870472408002000BFFEE710B5FFF7F9
:101D400041F8FFF7CDF810BD10B5FFF7F1FF0849D6
:101D5000086064204860FFF793F840F2CF2140F21A
:101D60001F30FFF77DFB024803C8FFF7E9F810BDFD
:101D70001C08002010B5FFF7ABF9FFF721F910BDE3
:101D800010B500F07FFE00F06EF800F019F84FF487
:101D9000E13000F0B4F800F0A7F800F00DF800F022
:101DA0006FF8FFF7D1FFFFF7C9FF01F07BF900F0F3
:101DB0000BF8FFF7DFFF10BD10B5FFF7C1F910BD3D
:101DC00010B5FFF7E9F910BD10B5FFF7EBF94FF4C7
:101DD00080410948FFF796FF0A20FFF789FD4FF47D
:101DE00080410548FFF790FF0A20FFF781FDFFF7CC
:101DF00045FA00F0FFF810BD000C014000210C4A2C
:101E0000117051709170002005E000220849C91C32
:101E10000A54411C08B20728F7DB0021044A51721A
:101E2000044A1170044A1170044A1170704700008E
:101E3000B00A002004000020050000200600002059
:101E4000704730B50B460024048044808280C480F3
:101E50008360002104E0002485686C544C1C21B28E
:101E60009142F8DB30BD10B5FFF76EFA10BD704738
:101E700010B5FFF7C3FFFFF7E3FFFFF7F8FF10BD53
:101E800030B5164800684FF47A72B0FBF2F1B1F148
:101E9000807F01D301201DE021F07F40401E4FF0E4
:101EA000E022506150170F22002807DA13071D0E99
:101EB0000B4B00F00F04241F1D5503E013071C0EED
:101EC000084B1C5400BF00204FF0E0229061072017
:101ED0001061002008B100BFFEE730BD980A002065
:101EE00018ED00E000E400E010B5472140F2E730D3
:101EF000FFF788FA47210920FFF7D4FA10BD10B583
:101F0000044600F005F82046FFF7FCFA10BD00007B
:101F100010B5002406E00020094908550949085574
:101F2000601C04B2642CF6DB642205490648FFF706
:101F300088FF642203490548FFF783FF10BD0000B6
:101F4000D40E0020380F0020BC0E0020C80E002048
:101F500000BFFEE77047000000F01F020121914022
:101F6000024A430942F823107047000080E200E073
:101F700070B5002100230F22C47804B3154C2468E7
:101F800004F4E064C4F5E064210AC1F10403CA402A
:101F9000447804FA03F184781440214309010E4C7B
:101FA0000678A155047804F01F050124AC4005789B
:101FB0006D11AD0005F1E025C5F8004109E0047898
:101FC00004F01F050124AC40044D0678761145F855
:101FD000264070BD0CED00E000E400E080E100E090
:101FE00002490143024A1160704700000000FA05EF
:101FF0000CED00E070B500240CE0002506E00020A8
:10200000074901EBC5010855681CC5B2802DF6DBF8
:10201000601CC4B2082CF0DB00F038F870BD000082
:10202000BA0A0020F0B5144600267F2801DC3F29BB
:1020300000DDF0BD0B46CF1701EB5777FF10C7F15E
:102040000707FAB2CF1701EB5777FF10A1EBC707CD
:10205000FDB2C5F107070123BB40DEB24CB10A4B0C
:1020600003EBC0039B5C3343074F07EBC007BB5434
:1020700008E0054B03EBC0039B5CB343024F07EB47
:10208000C007BB5400BFD4E7BA0A002070B50024D3
:102090001CE004F1B001C8B2002100F0DDF800211D
:1020A000084600F0D9F80021102000F0D5F80025EE
:1020B00008E0084901EBC501085D012100F0CCF8FA
:1020C000681CC5B2802DF4DB601CC4B2082CE0DBB8
:1020D00070BD0000BA0A00202DE9F05F80460C4672
:1020E00015461E46A346A5F12000C5B200273EE0D6
:1020F0000C2E07D105EB45001F4901EB800010F8BD
:10210000079004E01D4800EB051010F807904FF011
:10211000000A26E009F0800028B1214640460A9ACC
:10212000FFF780FF09E00A9808B9012000E00020CD
:10213000024621464046FFF775FF4FEA49604FEAE5
:102140001069601CC4B2A4EB0B00B04205D15C4620
:1021500008F1010000F0FF0806E00AF1010000F0BC
:10216000FF0ABAF1080FD5DB00BF781CC7B2B7422F
:10217000BEDBBDE8F09F0000323F0008A643000828
:102180002DE9FF4F81B0074691461E460E9D4FF048
:10219000000A002439E0301B401EC1B20A20FEF7BD
:1021A000B0FDB9FBF0F00A21B0FBF1F201FB12081F
:1021B000BAF1000F16D1701EA04213DDB8F1000F66
:1021C0000ED10120AB4605EBDB71491001FB047118
:1021D0000090C8B22B4620220299FFF77DFF12E043
:1021E0004FF0010A0120AB4605EBDB71491001FB02
:1021F00004710090C8B208F13001CAB22B460299AE
:10220000FFF76AFF00BF601CC4B2B442C3DB05B075
:10221000BDE8F08FF8B505460E46144618E07A2D55
:1022200003DD002506F11000C6B23A2E04DD0020C1
:1022300005460646FFF7DEFE0120009022781023B7
:1022400031462846FFF748FF05F10800C5B2641C77
:1022500020780028E3D1F8BD70B504460D4625B9B5
:1022600008211C48FFF74EFD05E0012D03D1082190
:102270001848FFF749FD4FF480511748FFF742FD1A
:1022800000261BE04FF400511348FFF73BFD04F01C
:10229000800028B14FF400410F48FFF735FD04E0FE
:1022A0004FF400410C48FFF72DFD4FF400510A4850
:1022B000FFF72AFD6006040E701C06B2082EE1DB53
:1022C0004FF480510448FFF71FFD08210148FFF734
:1022D0001BFD70BD00100140000C01407047000064
:1022E00010B5FFF719FDC0B1FFF784FE0B490C488C
:1022F0000068FDF79AFF0A49086008460068FEF783
:102300009AF9044621460748006800F04DFA00F0AB
:102310001BFF04490860FEF749FD10BD0000C842DC
:10232000240000200000002010B5FFF7FBFC08B1DE
:10233000FEF742FD10BD0146C88808B9012070476C
:102340000020FCE701460020034A506820F440408A
:1023500008435060704700000010024029B1064A4F
:1023600052690243044B5A6104E0034A52698243B2
:10237000014B5A61704700000010024029B1064A23
:10238000D2690243044BDA6104E0034AD269824312
:10239000014BDA61704700000010024029B1064A83
:1023A00012690243044B1A6104E0034A1269824332
:1023B000014B1A61704700000010024029B1064A23
:1023C00092690243044B9A6104E0034A9269824392
:1023D000014B9A61704700000010024029B1064A83
:1023E000D2680243044BDA6004E0034AD2688243B5
:1023F000014BDA6070470000001002400F4800688F
:1024000040F001000D490860084640680C4908404A
:102410000A494860084600680A49084007490860B8
:102420000846006820F4802008600846406820F4D0
:10243000FE0048604FF41F008860704700100240A3
:102440000000FFF8FFFFF6FE30B500210022002457
:1024500000232D4D6D6805F00C0121B1042905D034
:10246000082923D105E0294D056022E0274D0560AC
:102470001FE0254D6D6805F47012234D6D6805F45D
:102480008034022505EB92421CB9214D554305606D
:102490000BE01D4D6D6805F400351DB11C4D554315
:1024A000056002E0194D5543056002E0174D0560D7
:1024B00000BF00BF144D6D6805F0F0010909154D0E
:1024C0006B5C0568DD4045600F4D6D6805F4E061AB
:1024D000090A104D6B5C4568DD4085600A4D6D68EA
:1024E00005F46051C90A0B4D6B5C4568DD40C56061
:1024F000054D6D6805F44041890B074D6B5CC5685F
:10250000B5FBF3F5056130BD0010024000127A0002
:1025100000093D00800A0020900A002010B5014605
:102520000022002300204A11012A02D1094C23680D
:1025300006E0022A02D1074C236A01E0054C636AD7
:1025400001F01F02012494401C400CB1012000E066
:10255000002010BD001002400248406800F00C004E
:10256000704700000010024001460020034A5068F6
:1025700020F0F00008435060704700000010024057
:102580001149096821F480310F4A11601146096828
:1025900021F480211160B0F5803F03D0B0F5802F89
:1025A0000ED106E00849096841F48031064A1160FD
:1025B00007E00549096841F4A021034A116000E0E1
:1025C00000BF00BF7047000000100240014600201D
:1025D000034A506820F4E0600843506070470000F0
:1025E0000010024001460020034A506820F4605069
:1025F00040EAC1005060704700100240014908667F
:10260000704700000000424202460020044B586818
:1026100020F47C1042EA01031843014B58607047D4
:102620000010024001460020034A506820F00300D9
:1026300008435060704700000010024038B5002089
:1026400000900024002500BF3120FFF767FF0546FA
:102650000098401C00900098B0F5A06F01D0002DAC
:10266000F2D03120FFF75AFF08B1012400E0002426
:10267000204638BD70B50446002501222146034896
:10268000FFF713F9C5B2284670BD0000BC0E00204C
:102690007047000010B50446E1B2054800F04BFF5A
:1026A00000BF4021024800F079FE0028F9D010BD9B
:1026B0000038014010B500F001F810BD0CB5002045
:1026C000019000903348006840F480303149086040
:1026D00000BF3048006800F4003000900198401CB2
:1026E0000190009818B90198B0F5A06FF1D1294870
:1026F000006800F4003010B10120009001E00020DB
:1027000000900098012843D12348006840F0100051
:10271000214908600846006820F003000860084668
:10272000006840F0020008601A4840681949486093
:102730000846406848600846406840F48060486049
:102740000846406820F47C1048600846406840F421
:10275000E81048600846006840F08070086000BFDC
:102760000C48006800F000700028F9D00948406863
:1027700020F00300074948600846406840F0020026
:10278000486000BF0348406800F00C000828F9D1F9
:102790000CBD0000001002400020024010B50446AD
:1027A0002046FEF7B9FA10BD2DE9F04F87B0064676
:1027B0008A46964A07CA04AB07C3944A0C3207CA32
:1027C00001AB07C392493046FDF761FD8146FDF735
:1027D0004BFFC7B23046FDF72EFF0A2190FBF1F206
:1027E00001FB120000F0FF088A48007801280ED192
:1027F0008948007858B98948007840B988A104A868
:10280000FDF7B2FC89A101A8FDF7AEFC0BE0824800
:102810000078012807D187A104A8FDF7A5FC88A1AD
:1028200001A8FDF7A1FC88A200210846FFF7F2FCF1
:1028300089A210210020FFF7EDFC04AA102130200E
:10284000FFF7E8FC86A220210020FFF7E3FC85A229
:1028500030210020FFF7DEFC102002233A46002141
:1028600000906420FFF78CFC7FA200217420FFF70A
:10287000D1FC102001234246002100907820FFF770
:102880007FFC7A480068FDF7D6FE8346FDF7C5FE5B
:102890008146764801684846FDF7C4FC0546744900
:1028A00072480068FDF7F3FC8346FDF7DDFE8146C4
:1028B000102001234A46202100901820FFF760FCD9
:1028C0006A480068FDF7B7FE42F2107190FBF1F222
:1028D00001FB12004FF47A7190FBF1F910200123F3
:1028E0004A46202100900846FFF74AFC5F480068EE
:1028F000FDF7A1FE4FF47A7190FBF1F201FB12009B
:10290000642190FBF1F9102001234A462021009018
:102910002820FFF735FC55480068FDF78CFE642140
:1029200090FBF1F201FB12000A2190FBF1F910205B
:1029300001234A46202100903020FFF721FC4B481C
:102940000068FDF778FE0A2190FBF1F201FB120905
:10295000102001234A46202100903820FFF710FC68
:1029600041A220214020FFF755FC42492846FDF7AF
:102970005CFC8346FDF778FE8146102002234A4620
:10298000202100904820FFF7FBFB3A493A480068B5
:10299000FDF74BFC8146FDF767FE04464FF47A7065
:1029A000B4FBF0F100FB11406421B0FBF1F9102001
:1029B00001234A462E2100901820FFF7E1FB2AA2AE
:1029C0002E212020FFF726FC6420B4FBF0F100FB51
:1029D00011400A21B0FBF1F9102001234A462E21B3
:1029E00000902820FFF7CCFB0A20B4FBF0F100FB9D
:1029F0001149102001234A462E2100903020FFF774
:102A0000BFFBFFF743FB07B0BDE8F08F1C3F00089A
:102A100000002041210000202000002010000020A4
:102A20006F70656E202020202000000053454E531B
:102A3000453100006C656164206F666620202000CF
:102A40002D2D20202020200054656D70617265744A
:102A50007572653A0000000053746174653A0000B5
:102A600043313A0043323A002E00000008000020B3
:102A700000401C460000C8420C00002010B500F0C9
:102A800011FC10BD10B51348006840F00100114959
:102A9000086008464068104908400E4948600846EA
:102AA00000680E4908400B4908600846006820F499
:102AB000802008600846406820F4FE0048604FF41B
:102AC0001F008860FFF7F6FD4FF0006004490860C2
:102AD00010BD0000001002400000FFF8FFFFF6FEEE
:102AE00008ED00E010B50121880700F055F9012834
:102AF00003D10121800700F04BF809480088401CF1
:102B00000749088008460088022804DB0020088066
:102B100001200449087001200349087010BD00001D
:102B2000100800200C0800200E08002010B501211C
:102B3000044800F031F918B10121024800F028F8EA
:102B400010BD00000004004010B501210C4800F049
:102B500023F9012803D10121094800F019F8094897
:102B60000068401C0749086008460068064988421A
:102B700005DB00200349086001200449087010BDEE
:102B8000000C004014080020A08601000D08002061
:102B9000CA430282704721B1028842F001020280DA
:102BA00004E002884FF6FE731A400280704700006E
:102BB00010B504466848844208D10121C014FFF7CB
:102BC0000DFC0021E014FFF709FCC4E0B4F1804FD4
:102BD00008D101210846FFF7E1FB00210120FFF7A2
:102BE000DDFBB8E05D48844208D101210220FFF7F7
:102BF000D5FB00210220FFF7D1FBACE0584884420E
:102C000008D101210420FFF7C9FB00210420FFF7B0
:102C1000C5FBA0E05348844208D101210820FFF7FA
:102C2000BDFB00210820FFF7B9FB94E04E48844229
:102C300008D101211020FFF7B1FB00211020FFF780
:102C4000ADFB88E04948844208D101212020FFF7EC
:102C5000A5FB00212020FFF7A1FB7CE04448844233
:102C600008D101214014FFF7B9FB00216014FFF7E0
:102C7000B5FB70E03F48844209D10121C804FFF749
:102C8000ADFB00214FF40020FFF7A8FB63E03A48BA
:102C9000844209D101210805FFF7A0FB00214FF470
:102CA0008010FFF79BFB56E03448844209D1012194
:102CB0004805FFF793FB00214FF40010FFF78EFB50
:102CC00049E02F48844208D101214020FFF766FBEC
:102CD00000214020FFF762FB3DE02A48844208D1F2
:102CE00001218020FFF75AFB00218020FFF756FBCF
:102CF00031E02548844208D101218015FFF74EFBC1
:102D00000021A015FFF74AFB25E02048844209D1A5
:102D100001210804FFF762FB00214FF48030FFF728
:102D20005DFB18E01A48844209D101214804FFF7ED
:102D300055FB00214FF40030FFF750FB0BE0154826
:102D4000844208D101218804FFF748FB00214FF499
:102D50008020FFF743FB10BD002C01400004004021
:102D600000080040000C004000100040001400402B
:102D700000340140004C014000500140005401402B
:102D800000180040001C00400020004000400140AE
:102D9000004401400048014030B5024600200023B5
:102DA0000024158A05EA0103958905EA010413B197
:102DB0000CB1012000E0002030BD1AB183890B4323
:102DC000838102E083898B438381704782884FF639
:102DD0008F731A40828082880A4382807047000085
:102DE000002202881D4B98420ED01D4B98420BD0FA
:102DF000B0F1804F08D01B4B984205D01A4B984237
:102E000002D01A4B984204D14FF68F731A404B8868
:102E10001A43174B984207D0164B984204D04FF6EE
:102E2000FF431A40CB881A4302808B8883850B8826
:102E300003850A4B98420BD0094B984208D00E4BA1
:102E4000984205D00D4B984202D00D4B984201D1CB
:102E50000B7A03860123838270470000002C014017
:102E6000003401400004004000080040000C004015
:102E700000100040001400400040014000440140A8
:102E80000048014010B500F005F80020FFF786FC6F
:102E900010BD00002DE9FC4101206349087063A2C8
:102EA00010213020FFF7B6F9FFF7F0F80320FDF707
:102EB00033FF0120FDF730FF5FA000F05BFB002037
:102EC0005F4908805F49086003E0FDF779FE5E49CD
:102ED00008605B4800889628F7DD5B480068FDF7CE
:102EE000D7FB044622460B4658A000F043FB0020C7
:102EF00053490880534908600220FDF70DFF56A092
:102F000000F038FB03E0FDF75BFE554908604C48D4
:102F10000088B0F5AF7FF6DD51480068FDF7B8FBDB
:102F2000044622460B464FA000F024FB00204449F3
:102F30000880444908600120FDF7EEFE3EA000F045
:102F400019FB00203E4908803E49086003E0FDF778
:102F500037FE3D4908603A480088B0F5AF7FF6DD9E
:102F600039480068FDF794FB044622460B4637A01B
:102F700000F000FB002032490880324908603C49DB
:102F800037480068FDF783F906463A492E4800683D
:102F9000FDF77DF907463146FDF741F904462A4819
:102FA00001682F480068FDF73AF905462146FDF70C
:102FB0006EF9314908602448016829480068FDF726
:102FC00066F907462D49FDF730F906464FF07E5168
:102FD000FDF725F90446224801682848FDF725F940
:102FE00006461F4801683046FDF719F90546214697
:102FF000FDF74DF92249086000200B490870204870
:103000000068FDF745FB04460D461B480068FDF7C8
:103010003FFB064632460B461AA0CDE9004500F0BC
:10302000A9FABDE8FC8100001000002063616C6912
:1030300062726174650000005041B2C9D1F90A00A2
:1030400012000020140000201800002056413D25E9
:10305000302E33660A0000005042B2C9D1F90A008E
:103060001C00002056423D25302E33660A00000029
:103070000000FF4300B0E54508000020000060416B
:103080000C000020D0A3D7BCD2D1CDEAB3C90A63CB
:10309000313D25302E33660A63323D25302E3366AE
:1030A0000A0000002DE9F041FEF780F91F49204891
:1030B0000068FDF7ECF806461E491F480068FDF75A
:1030C000E6F807463146FDF7AAF804461A480168B3
:1030D00017480068FDF7A3F805462146FDF7D7F825
:1030E000164908601448016811480068FDF7CFF8D8
:1030F00007461349FDF799F806464FF07E51FDF754
:103100008EF804460A4801680D48FDF78EF8064619
:10311000074801683046FDF782F805462146FDF76D
:10312000B6F808490860BDE8F08100000000FF43E0
:103130001C00002000B0E545180000200800002019
:10314000000060410C0000202DE9F84F3A4800785B
:1031500000286DD139480078012869D138A000F0E5
:1031600009FA0020384908803849086002E0FDF774
:1031700027FD00903048007840B930480078012899
:1031800004D131480088B0F5AF7FF0DB0098FDF73F
:103190007FFA044622460B462DA000F0EBF90020F2
:1031A00029490880294908602E4800990068FDF7E0
:1031B00036F804462C4800990068FDF736F80546B5
:1031C0002146FDF764F82949086008460068FDF7C4
:1031D0005FFA8046264A274BFDF738F90646264A0D
:1031E000264BFDF7ABF90446FDF765FA1F49086069
:1031F00008464FF4FB7102682148FDF72DFD834618
:10320000594620A000F0B6F90BF10100FDF705FAD0
:1032100082461F49C1F800A05046FDF739FA04461E
:1032200022460B461BA000F0A5F95046BDE8F88FDA
:1032300017480068FAE70000200000202100002065
:103240005331B2C9D1F90A00120000201400002045
:10325000763D25302E3366202D54656D7056616C99
:103260000A0000000C0000200800002024000020BC
:10327000C6DCB5847C702E40F0A7C64B3789ED3F85
:1032800028000020696E6465783D256420202000B8
:1032900008080020202074656D703D25302E3266B0
:1032A0000A0000000448006820B103480068401E7E
:1032B0000149086070470000940A002008B500200A
:1032C000009040F22551204800F075F858B12520B3
:1032D000FEF742FE1C4800F029F9C0B200909DF8AC
:1032E000000000F03BF90821174800F057F80128CA
:1032F00006D10821144800F02DF8134800F016F903
:1033000040F22771104800F056F8E0B140F2277102
:103310000D4800F028F82520FEF71EFE6846FFF74E
:10332000A9F99DF80010084800F005F90748FFF7D3
:1033300002F840B1002006490870002240F22771CF
:10334000014800F062F808BD00380140BC0E0020C2
:103350001808002001F40072B2F5007F00D100BF10
:10336000CA430280704710B50022002340F66A1459
:10337000A14200D100BF0A1201249440A3B2DC4351
:10338000048010BD21B1828942F40052828104E0A0
:1033900082894DF6FF731A408281704702460020F1
:1033A000B1F5007F00D100BF13880B400BB10120A5
:1033B00000E00020704770B502460024002300257D
:1033C000002040F66A16B14200D100BFC1F3421599
:1033D00001F01F03012606FA03F3012D02D196899D
:1033E000334006E0022D02D1168A334001E0968A6E
:1033F00033400C12012606FA04F41688344013B147
:103400000CB1012000E0002070BDF0B5034600249F
:1034100000260025002040F66A17B94200D100BFFF
:103420001846C1F3421401F01F06012707FA06F5FA
:10343000012C01D10C3004E0022C01D1103000E04D
:1034400014301AB107682F43076002E00768AF43E2
:103450000760F0BD2DE9F04786B005460E46002412
:10346000A24600BFA1460027B08900B100BF2F4689
:103470002C8A4CF6FF700440F08804432C82AC89FF
:103480004EF6F3100440B08831890843718908432F
:103490000443AC81AC8A4FF6FF400440B08904433A
:1034A000AC8201A8FEF7D0FF1F48874202D1DDF8A9
:1034B00010A001E0DDF80CA0A88900F4004040B1A4
:1034C0000AEBCA0000EB0A1031684900B0FBF1F8C2
:1034D00007E00AEBCA0000EB0A1031688900B0FB74
:1034E000F1F86420B8FBF0F004012009642101FB2D
:1034F0001089A88900F4004040B1322000EBC900D7
:10350000B0FBF1F000F00700044308E0322000EBCC
:1035100009106421B0FBF1F000F00F0004432C818E
:1035200006B0BDE8F08700000038014001468888F9
:10353000C0F308007047C1F30802828070474FF45F
:103540001651016000218180C18001810C214181DF
:1035500000218181704700BFFEE7000031B50024E3
:10356000012269460248FEF7DBFAC4B2204638BDA4
:10357000C80E00200FB4054B10B503A9044A0298E9
:1035800000F0DAF810BC5DF814FB0000673E00089C
:10359000AC0A002002E008C8121F08C1002AFAD1B4
:1035A00070477047002001E001C1121F002AFBD1C3
:1035B000704700002DE9FF5F82B00021DDE9043093
:1035C000020DDDF840B0034318D044F61050A2F2CB
:1035D000FF3242431514119801281FD0A5EB0B00B0
:1035E000401C5FEA000A4FF000064E4FDFF83891AA
:1035F000B046504615D5CAF1000413E011980124D5
:103600004AA3012801D16FEA0B010298119AC0E97F
:103610000031C0E9024206B0BDE8F09FCBF10000E6
:10362000DFE704460021404A491842EB0450CDE947
:10363000001012E0E00707D032463B4640464946BC
:10364000FCF70AFF8046894632463B46104619463B
:10365000FCF702FF06460F466410002CEAD1DDE9B4
:103660000401DDE90023BAF1000F06DAFCF7F4FEED
:1036700042464B46FCF7F0FE05E0FCF75FFF424692
:103680004B46FCF75BFF04460E460022284BFDF735
:1036900057F903D84FF0FF30014607E00022254BD1
:1036A00020463146FCF731FEFDF732F9102409E0DF
:1036B000002C0ADB0A220023FDF744F8039B30327A
:1036C0001A55641E50EA0102F2D1641C039AC4F137
:1036D00011031444119A012A03D0012208430DD189
:1036E0000AE0084304D000204FF0110B119072E75C
:1036F000A3EB0B056D1E0DE05B4504DD4FF00002F2
:1037000005F1010504E003DA4FF00002A5F101051F
:10371000002AECD002981199C0E90231C0E90045B5
:1037200079E70000000014400000F03F3000000086
:103730000000F0430000E03F2DE9FF4F95B09B46AD
:103740008946064600250FE2252877D10024274622
:10375000F84A0121059400E0044316F8013F203B9C
:1037600001FA03F01042F7D130782A2811D06FF017
:103770002F033078A0F13002092A16D8059A44F0B8
:10378000020402EB820203EB42021044761C059015
:10379000EFE759F8042B0592002A03DA504244F46B
:1037A0000054059044F00204761C30782E2816D17F
:1037B00016F8010F44F004042A280DD06FF02F02F0
:1037C0003078A0F13003092B09D807EB870302EB0F
:1037D0004303C718761CF3E759F8047B761C30784E
:1037E0006C280FD006DC4C2817D068280DD06A282A
:1037F00014D104E0742810D07A280FD10DE044F4DD
:1038000000140AE044F4801401E044F44014727897
:10381000824202D104F58014761C761C307866282A
:103820000BD013DC582877D009DC002875D0452848
:10383000F6D04628F4D047281AD19DE118E0632835
:1038400035D0642879D0652812D195E1702873D0DD
:1038500008DC6728F1D069286FD06E280DD06F285A
:1038600006D1B5E073282CD0752875D0782874D08F
:103870005A46179990476D1C75E1C4F3025002280F
:1038800009D003280DD0D9F8001004280DD00D6000
:1038900009F1040967E1D9F80010EA17C1E90052FB
:1038A000F6E7D9F800100D80F2E70D70F0E719F88F
:1038B000041B8DF8001000208DF80100EA4601205D
:1038C00003E059F804AB4FF0FF3061074FF00001FF
:1038D00002D40DE008F101018846B9420FDA8045B3
:1038E000F8DB1AF808100029F4D108E008F101010A
:1038F00088468142FADB1AF808100029F6D10598AB
:103900005B46A0EB080721463846179A00F094FA68
:10391000284400EB080507E04DE029E10DE01AF826
:10392000010B5A4617999047B8F10108F7D25B4648
:1039300021463846179A13E142E00A220092C4F366
:1039400002524FF0000A022A08D059F804CB032A89
:103950004FEAEC710AD00DE029E02AE009F10701F5
:1039600021F00702F2E802C1914609E00FFA8CFC4F
:103970004FEAEC71042A03D14FFA8CFC4FEAEC7148
:10398000002907DA0A460021DCF1000C61EB020194
:103990002D2202E0220504D52B228DF804200122DD
:1039A00003E0E20701D02022F7E7904659E00A2120
:1039B00002E010220DE010214FF0000A00910BE010
:1039C00010224FF0000A44F004040827009203E09C
:1039D00008224FF0000A0092C4F30252022A05D0D6
:1039E00059F804CB0021032A08D009E009F10701A6
:1039F00021F00702F2E802C1914605E01FFA8CFCB3
:103A0000042A01D10CF0FF0C4FF00008220728D542
:103A1000702806D0009B83F0100353EA0A0305D0F8
:103A20000EE040228DF80420012208E05CEA010249
:103A300006D030228DF804208DF805000222904631
:103A4000009B83F0080353EA0A030AD15CEA0102EF
:103A500001D1620705D530228DF804204FF001080E
:103A60007F1E582804D034A003900EA802900DE0C9
:103A700036A0F9E753466046009AFCF763FE844699
:103A80000398825C0298401E029002705CEA01007A
:103A9000F0D1029806A9081A00F1200A600702D5A1
:103AA00024F4803400E00127574502DDA7EB0A002B
:103AB00000E0002000EB0A01009005984144401A04
:103AC0000590E00306D45B462146179A059800F05E
:103AD000B3F90544002706E001A85A46C05D1799CE
:103AE00090476D1C7F1C4745F6DBE0030CD55B4619
:103AF0002146179A059800F09FF9054404E030200C
:103B00005A46179990476D1C0099481E009000294D
:103B1000F5DC08E0029802995A460078491C0291A7
:103B2000179990476D1CBAF10001AAF1010AF1DC66
:103B300065E1000009280100303132333435363771
:103B400038396162636465660000000030313233E9
:103B50003435363738394142434445460000000089
:103B600000F058F90544761C307800287FF4ECAD5D
:103B700019B02846BDE8F08F620700D4062709F186
:103B8000070222F0070CFCE80223E14603F000489C
:103B90005FEA080C02D00FF2702C0DE05FEA045CC3
:103BA00002D50FF2682C07E05FEAC47C02D00FF266
:103BB000602C01E0AFF2700C4FF0FF3823F00043AF
:103BC000CDF850C065280CD006DC452809D0462821
:103BD0001DD047283DD13DE0662818D067287ED10A
:103BE00038E00021112F01DB112000E0781CCDE925
:103BF000000106A90EA8FFF7DDFCDDE90F010E9A12
:103C000003910021009207F1010A04914DE04FF069
:103C100000400097CDE9011006A90EA8FFF7CAFCE5
:103C2000DDE90F0203920E9B11990022DDF80CA032
:103C30000093049211B9791C00EB010AB7EB0A005A
:103C400004D4C0F1FF3007F1010A0490AAEB070089
:103C5000019044E0012F00DA01270021112F01DD3E
:103C6000112000E03846CDE9000106A90EA8FFF7B3
:103C7000A1FCDDE90F010E9A03910021049100924D
:103C8000BA4621070CD40399514500DA8A46BAF1A5
:103C9000010F05DD009AAAF10101515C302908D01D
:103CA000B84202DA10F1040F06DA0121CDE9011061
:103CB00015E0AAF10101E9E7002805DC04990144B7
:103CC0000491AAEB000102E0411C514500DD8A4647
:103CD0000499401A401C01904FF0004002902007C8
:103CE00004D40198504501DBCDF8048000208DF804
:103CF0004F0002980DF14F07B0F1004F25D02B2057
:103D00000E9002984FF0020800280CDA4042029010
:103D10002D200E9007E00A210298FCF7FDFC3031BF
:103D2000029007F8011DB8F10001A8F10108F2DCCA
:103D300002980028EFD1791E0E980870307800F0B4
:103D4000200040F0450007F8020D12A8C01B00F14A
:103D500007081498007800B1012000EB0A010198CF
:103D600001EBE07105984144401A401E0590E003C4
:103D700006D45B462146179A059800F05DF8054485
:103D80001498007818B15A46179990476D1CE003B3
:103D900024D55B462146179A059800F04DF8054456
:103DA0001CE00498002807DBDDE90301884203DDFD
:103DB0000098405C179901E0179930205A469047C7
:103DC000049805F10105401C04900198401E0190E3
:103DD00004D12E205A46179990476D1CBAF1000164
:103DE000AAF1010ADDDC05E017F8010B5A46179924
:103DF00090476D1CB8F10001A8F10108F4DC5B46A6
:103E00002146179A0598ABE62D0000002B00000014
:103E1000200000002DE9F041044600251E4617460B
:103E2000880404D405E039462020B0476D1C641E88
:103E3000F9D52846BDE8F0812DE9F041044600257A
:103E40001E469046C80301D5302700E0202788048D
:103E500004D505E041463846B0476D1C641EF9D5CF
:103E60002846BDE8F08170B504460D46E0B2FEF785
:103E700011FC204670BD0000FDF7FAFFFDF780FF42
:103E800011A0FFF777FB19A200210846FEF7C2F93F
:103E90001AA210210020FEF7BDF91AA2102130202D
:103EA000FEF7B8F91AA220210020FEF7B3F919A2F3
:103EB00030210020FEF7AEF9FEF7E4FF03E0FEF745
:103EC00033FAFEF70DFAFAE7496E697420537973F5
:103ED00074656D20686173206265656E2066696E29
:103EE00069736865642E0D0A0000000054656D70EA
:103EF000617265747572653A0000000053746174F4
:103F0000653A000063616C6962726174650000006B
:103F100043313A0043323A00F60100007374617491
:103F200065000000000000006368616E6E656C0053
:103F30000000000000000000000000000000000081
:103F400000003F4000000000000000003000400082
:103F500030004000000009000BC03D000BC03D00D8
:103F6000090018C024407FE0224031800000180082
:103F700024C01B000D803240018003801C4027407C
:103F80001C8007400040100060000000000000009E
:103F900000000000000000001F80204040200000C2
:103FA000402020401F8000000000090006001F8004
:103FB000060009000000040004003F800400040023
:103FC000000000100060000000000000000004007D
:103FD0000400040004000400000000000040000091
:103FE000000000000000002001C006003800400072
:103FF00000001F802040204020401F800000000063
:1040000010403FC000400000000018C02140224086
:1040100024401840000010802040244024401B8091
:10402000000002000D0011003FC0014000003C8074
:10403000244024402440238000001F80244024404A
:104040003440038000003000200027C038002000EA
:1040500000001B802440244024401B8000001C00E2
:1040600022C0224022401F800000000000000840C3
:1040700000000000000000000000046000000000DC
:104080000000000004000A001100208040400900E8
:1040900009000900090009000000000040402080DC
:1040A00011000A000400180020002340240018001A
:1040B00000001F802040274029401F400000004092
:1040C00007C039000F0001C0004020403FC024401D
:1040D00024401B8000001F80204020402040308072
:1040E000000020403FC0204020401F8000002040B2
:1040F0003FC024402E4030C0000020403FC024403C
:104100002E00300000000F0010802040224033803D
:10411000020020403FC0040004003FC02040204077
:1041200020403FC020402040000000602020202090
:104130003FC02000200020403FC024400B0030C082
:10414000204020403FC020400040004000C03FC011
:104150003C0003C03C003FC0000020403FC00C407A
:1041600023003FC020001F802040204020401F80AF
:10417000000020403FC024402400180000001F80A1
:104180002140214020E01FA0000020403FC02440EB
:10419000260019C0004018C024402440224031802D
:1041A0000000300020403FC02040300000002000D0
:1041B0003F80004000403F80200020003E0001C0C2
:1041C000070038002000380007C03C0007C0380056
:1041D0000000204039C0060039C020400000200007
:1041E000384007C0384020000000304021C0264041
:1041F000384020C00000000000007FE04020402048
:104200000000000070000C0003800040000000006F
:10421000402040207FE0000000000000200040001F
:10422000200000000000001000100010001000101E
:10423000001000000000400000000000000000002E
:1042400002800540054003C0004020003FC00440FC
:104250000440038000000000038004400440064046
:10426000000000000380044024403FC000400000E4
:1042700003800540054003400000000004401FC0CB
:10428000244024402000000002E005500550065064
:10429000042020403FC00440040003C00040000050
:1042A000044027C00040000000000010001004106F
:1042B00027E00000000020403FC00140070004C08C
:1042C0000440204020403FC000400040000007C0A4
:1042D000040007C0040003C00000044007C00440FD
:1042E000040003C000400000038004400440038039
:1042F0000000041007F00450044003800000000098
:1043000003800440045007F00010044007C002403E
:10431000040004000000000006400540054004C001
:104320000000000004001F80044000400000040062
:1043300007800040044007C000400400070004C09C
:10434000018006000400060001C0070001C006004D
:104350000000044006C0010006C004400000041034
:10436000071004E00180060004000000044005C0BE
:104370000640044000000000000004007BE04020F4
:104380000000000000000000FFF00000000000003E
:1043900040207BE00400000000004000800040005E
:1043A000200020004000000000000000000000008D
:1043B0000000000000000000000000001FCC000C06
:1043C000000000000000000008003000600008004D
:1043D000300060000000022003FC1E20022003FCCD
:1043E0001E200220000000000E1811043FFF108460
:1043F0000C78000000000F0010840F3800C0077810
:1044000018840078000000780F8410C411240E98DE
:1044100000E400840008080068007000000000004C
:1044200000000000000000000000000007E0181875
:10443000200440020000000040022004181807E099
:104440000000000000000240024001800FF00180E7
:104450000240024000000080008000800FF80080D1
:104460000080008000000001000D000E0000000030
:10447000000000000000000000800080008000803C
:104480000080008000800000000C000C0000000094
:10449000000000000000000000060018006001801D
:1044A000060018002000000007F00808100410049F
:1044B000080807F000000000080408041FFC0004BE
:1044C00000040000000000000E0C10141024104422
:1044D00011840E0C000000000C18100411041104CB
:1044E00012880C700000000000E00320042408245F
:1044F0001FFC0024000000001F9810841104110408
:10450000108810700000000007F0088811041104E2
:1045100018880070000000001C00100010FC130040
:104520001C001000000000000E381144108410849C
:1045300011440E38000000000700088C104410449D
:10454000088807F00000000000000000030C030CC6
:104550000000000000000000000000010106000053
:104560000000000000000000008001400220041054
:10457000080810040000022002200220022002206D
:10458000022002200000000010040808041002208D
:1045900001400080000000000E001200100C106CA2
:1045A00010800F00000003E00C1813E4142417C45B
:1045B000082807D000000004003C03C41C4007404A
:1045C00000E4001C000410041FFC11041104110479
:1045D0000E880070000003E00C1810041004100492
:1045E00010081C10000010041FFC1004100410041C
:1045F000080807F0000010041FFC1104110417C480
:1046000010040818000010041FFC1104110017C04A
:1046100010000800000003E00C18100410041044FF
:104620001C780040000010041FFC108400800080F3
:1046300010841FFC10040000100410041FFC100460
:1046400010040000000000030001100110011FFE13
:1046500010001000000010041FFC110403801464FB
:10466000181C1004000010041FFC100400040004B7
:104670000004000C000010041FFC1F0000FC1F00C1
:104680001FFC1004000010041FFC0C04030000E0D9
:1046900010181FFC100007F0080810041004100484
:1046A000080807F0000010041FFC10841080108020
:1046B00010800F00000007F0081810241024101CB0
:1046C000080A07F2000010041FFC1104110011C0B9
:1046D00011300E0C000400000E1C11041084108414
:1046E00010441C3800001800100010041FFC1004B7
:1046F00010001800000010001FF81004000400044F
:1047000010041FF8100010001E0011E0001C0070C3
:1047100013801C0010001FC0103C00E01F0000E0D0
:10472000103C1FC000001004180C163401C001C05A
:104730001634180C100410001C00130400FC1304A1
:104740001C00100000000804101C106410841304E6
:104750001C04101800000000000000007FFE400252
:10476000400240020000000030000C0003800060A6
:10477000001C0003000000004002400240027FFED7
:104780000000000000000000000020004000400089
:1047900040002000000000010001000100010001B4
:1047A0000001000100010000400040002000000066
:1047B00000000000000000000098012401440144B2
:1047C000014400FC000410001FFC008801040104E7
:1047D00000880070000000000070008801040104DF
:1047E000010400880000000000700088010401043A
:1047F00011081FFC0004000000F8014401440144BA
:10480000014400C800000000010401040FFC110471
:10481000110411001800000000D601290129012906
:1048200001C90106000010041FFC00840100010002
:10483000010400FC000400000104190419FC000438
:104840000004000000000000000300010101190144
:1048500019FE0000000010041FFC0024004001B4F9
:10486000010C010400000000100410041FFC0004EF
:10487000000400000000010401FC0104010001FC2F
:104880000104010000FC010401FC0084010001009E
:10489000010400FC0004000000F80104010401040C
:1048A000010400F80000010101FF0085010401047A
:1048B00000880070000000000070008801040104FE
:1048C000010501FF00010104010401FC0084010451
:1048D000010001800000000000CC0124012401241B
:1048E00001240198000000000100010007F8010404
:1048F000010400000000010001F8000400040004AD
:10490000010801FC0004010001800170000C00108E
:1049100001600180010001F0010C003001C0003095
:10492000010C01F0010000000104018C0074017011
:10493000018C01040000010101810171000E0018C9
:1049400001600180010000000184010C0134014478
:104950000184010C000000000000000000000100C4
:104960003EFC400240020000000000000000FFFF8B
:104970000000000000000000400240023EFC010078
:104980000000000000000000600080008000400087
:104990004000200020000000B8490008000000206E
:1049A000B00A0000B409000898520008B00A0020BC
:1049B000F0080000A435000802150001500B8FC25A
:1049C00005408941603E0001111073D8E54500ACF7
:1049D000E4456682E345665AE2453333E145660EB7
:1049E000E04533EBDE459AC9DD459AA9DC45008CEC
:1049F000DB45336FDA450054D945663AD84566221F
:104A0000D745CD0CD64500F8D445CDE4D34533D3B6
:104A1000D24533C3D145CDB4D04500A8CF45CD9CB8
:104A2000CE453393CD45668ACC450084CB45667E22
:104A3000CA45667AC9450078C8453377C704102649
:104A4000C6453347C545CD7CC4459A81C3453387A8
:104A5000C245338FC1450098C04566A2BF4566AECA
:104A6000BE4533BBBD80101ABC459AD9BB4566EA2A
:104A7000BA45CDFCB945CD10B9456626B845CD3C03
:104A8000B78C1006B6459A6DB53C101EB44533A3DD
:104A9000B34500C0B24566DEB1459AFDB045661E1D
:104AA000B0450040AF453363AE201016AD45CDACE8
:104AB000AC4500D4AB4500FCAA45CD24AA45334FF4
:104AC000A9901016A84533A7A7459AD5A645000476
:104AD000A645CD34A5459A65A484100EA34500CC07
:104AE000A245CD00A2456636A1641006A0459AA550
:104AF0009F5C10069E45CD189E78100D9D45009038
:104B00009C459ACD9B45000C04100B4C9A45CD8CCE
:104B1000994566CE98A01104100B5497459A999622
:104B20004533DF95AC1295401006944566B6935018
:104B300010299345334B92453397914500E49045B6
:104B40009A31904500808F4500D08E45CD208E450E
:104B500066728D45CDC48C45001804141B6C8B45C2
:104B60009AC18A4533178A45666E894566C6884567
:104B7000331F8845CD78876C10058645332F041088
:104B80000B8B8545CDE88445664684A0101A834585
:104B90009A0583456666824500C88145662A814537
:104BA0009A8D804533E37FFC167E78127D281406AB
:104BB0007C45CD147BB01006794500B878401012C2
:104BC00077450060764500387545001074459AE9D0
:104BD000728016714C167094100A6F459A616E457A
:104BE00033436DC4140A6C45330B6B459AF1698CE1
:104BF0001668E81667A01266E4101A654500886416
:104C00004566766345006862459A596145CD4C60BA
:104C1000459A415F54101A5E4500305D459A295C03
:104C20004533235B4500205A45CD1C5945331B585D
:104C30000412570C1656A412551C140A5445002889
:104C40005345662E526C1651B4140650459A494F7E
:104C500044164EBC14064D4500704C2410064B45BE
:104C60009A914A98164948180A484533CB47450057
:104C7000E0467C1245B81104132844A8100A4345A5
:104C8000665E4245337B4198100640459AB93FAC79
:104C900010063E4533FB3D68123D94163C1C163B06
:104CA000A81A3AA4100A3945CDDC3845660638A45E
:104CB00010063745CD5C36C812355C16341C1633E9
:104CC0002416332C1632341006314533AB306C12B7
:104CD0002F14162FBC18062E4533832D9810062C42
:104CE00045CDF42B3C18062B45336B2AF01229389E
:104CF0001228CC1104136327A8122610122598122B
:104D0000252016242C12233014062245333B22582A
:104D10001A21D4100620459A112078100E1F4566DE
:104D2000A61E4533F31D45663E1D9C10091C4533E8
:104D3000DB1B459A390413791AE816192816190449
:104D40001618741A171810061745CD6C160C100596
:104D500015459A1904137114241A13D01E136003F5
:104D60001212F01611441E1178031009104500F0BC
:104D70000F45664E041FAE0ECC0311041B6E0D686A
:104D80001A0C74140A0C45CD940B459AF90A30128A
:104D90000A4C1209A81104179008501A071012079C
:104DA000A01E060404140A0645669E05459A0905D8
:104DB000E01A0448140A03450050034566BE02ACDD
:104DC0001E02E0031201581104177E008C104AFFE6
:104DD0004466C6FE44CDACFD443393FC44CD7CFB1D
:104DE000449A69FA443353F9440040F8440030F7D8
:104DF000440020F6440010F5443303F44466F6F210
:104E000044CDECF14433E3F0449AD9EF4433D3EE8C
:104E100044CDCCED449AC9EC481006EB4433C3EAC8
:104E20000412E90412E81012E71812E62012E5282D
:104E300012E4301036E34400E0E2449AE9E14433FE
:104E4000F3E044CDFCDF449A09DF446616DE446695
:104E500026DD446636DC446646DB449A59DA44CDA6
:104E60006CD9440080D8446696D79C12D650100660
:104E7000D544CDDCD4801006D3443313D398100628
:104E8000D244CD4CD1AC100AD0449A89CF449AA9CF
:104E9000CE681006CD4400F0CC20100ECC449A39D8
:104EA000CB440060CA446686C940100EC84466D62A
:104EB000C7440000C744CD2CC66012C5181006C4F4
:104EC0004433B3C3C812C23012C2781006C144665C
:104ED00076C04812BFA412BE141006BE449A49BD43
:104EE000841006BC449AB9BBB012BA3C100ABA444A
:104EF0006666B94433A3B8241005B744CD1C04102A
:104F0000075CB644CD9CB59C12B41012B47412B3B5
:104F1000201006B24466E6B1301006B1443373B0D7
:104F20004012AF7C12AF5016AE6412AD2C12ACF032
:104F300012AC1C1009AB4400C0AA44CD0C04135C95
:104F4000A9A816A81412A7D81006A74400A0A674F2
:104F500012A5981406A5449A99A4741006A3443384
:104F600043A30C12A21812A14C12A16812A0301077
:104F7000069F4466569FCC169EA4169E38169D74B6
:104F8000129C60110413869B88129A44129AD816B8
:104F9000996C1299201406984400D0976C12974C83
:104FA0001296981296D416953C1006944433339476
:104FB000CC1693E81293281692B01291741291981D
:104FC000100690449A199050128F7C10058E44332D
:104FD00063041BD38D2011041006B08C44332304CA
:104FE000100B938B4466068B449A798AAC16890819
:104FF0001289241688A01288E4128770128748123A
:1050000086981286641685F4100685440090849470
:105010001284581283881A837C140682449AF98178
:1050200088128168168020168068127F04127E0420
:10503000127DCC127C04127B60127A041279241245
:1050400078301277781677441276A41A75AC1674F5
:10505000781A73001672481671EC1270CC166FC86D
:10506000126EA414066D4466A66C90126B9C126AB4
:105070004C1269781269381268FC12673012662C7B
:105080001265901264281A63C012622412616011C2
:105090000413266020125F94125E48125D44125C75
:1050A00094125B78125B3C125AF0125938165888E9
:1050B0001257181256181656201255501654CC1660
:1050C000536012526C12522C165170125014124F1F
:1050D00084124E5C124E28164D38124C3C124B1462
:1050E000164A3000042249440001103308800800A9
:1050F000097F09FD09780AF10A670BDA0B490CB33D
:105100000C190D790DD40D290E780EC00E020F3C2E
:105110000F6F0F9B0FBF0FDB0FEF0FFB0FFF041283
:10512000EF0C12BF14126F1C1004020FC0281004E1
:10513000290ED4341010190DB30C490CDA0B670B7F
:10514000F10A780AFD58130009601031087F07FF43
:10515000068006020687050E0598042504B6034C52
:1051600003E60286022B02D60187013F01FD00C340
:10517000009000640040002400100004971204080E
:105180001224101264181006C300FD003F281004FA
:10519000D6012B341010E6024C03B6032504980404
:1051A0000E0587050258000661FF067F0700010310
:1051B00060FF0F0215E0146100A400F60048019999
:1051C00001EB013D028F02E10233038503D703297E
:1051D000047B04CD041E057005C20514066606B8DE
:1051E000060A075C07AE0700085108A308F5084740
:1051F000099909EB093D0A8F0AE10A330B840BD6A2
:105200000B280C7A0CCC0C1E0D700DC20D140E6602
:105210000EB70E090F5B0FADC212AD081004090FD7
:10522000B7141004140EC22010041E0DCC2C100450
:10523000280CD6381004330BE14410043D0AEB501F
:1052400010044709F55C1651C212AE6C10040A072F
:10525000B87810041406C28410041E05CD90100402
:105260002904D79C10043303E1A810043D02EBB4D9
:1052700010044801F6C07A525F20050102030404BD
:105280003C090607080902040608700AA004A24A9D
:085290000420211C25C00000D0
:0400000508000131BD
:00000001FF
